{
  "contractName": "EthSwap",
  "abi": [
    {
      "inputs": [
        {
          "internalType": "contract ERC20",
          "name": "_token",
          "type": "address"
        }
      ],
      "stateMutability": "nonpayable",
      "type": "constructor"
    },
    {
      "inputs": [],
      "name": "rate",
      "outputs": [
        {
          "internalType": "uint256",
          "name": "",
          "type": "uint256"
        }
      ],
      "stateMutability": "view",
      "type": "function",
      "constant": true
    },
    {
      "inputs": [],
      "name": "token",
      "outputs": [
        {
          "internalType": "contract ERC20",
          "name": "",
          "type": "address"
        }
      ],
      "stateMutability": "view",
      "type": "function",
      "constant": true
    },
    {
      "inputs": [],
      "name": "getThis",
      "outputs": [
        {
          "internalType": "address",
          "name": "",
          "type": "address"
        }
      ],
      "stateMutability": "view",
      "type": "function",
      "constant": true
    },
    {
      "inputs": [],
      "name": "getMsgSender",
      "outputs": [
        {
          "internalType": "address",
          "name": "",
          "type": "address"
        }
      ],
      "stateMutability": "view",
      "type": "function",
      "constant": true
    },
    {
      "inputs": [],
      "name": "getToken",
      "outputs": [
        {
          "internalType": "address",
          "name": "",
          "type": "address"
        }
      ],
      "stateMutability": "view",
      "type": "function",
      "constant": true
    },
    {
      "inputs": [],
      "name": "getSwapBalance",
      "outputs": [
        {
          "internalType": "uint256",
          "name": "",
          "type": "uint256"
        }
      ],
      "stateMutability": "view",
      "type": "function",
      "constant": true
    },
    {
      "inputs": [],
      "name": "getTokenOwner",
      "outputs": [
        {
          "internalType": "address",
          "name": "",
          "type": "address"
        }
      ],
      "stateMutability": "view",
      "type": "function",
      "constant": true
    },
    {
      "inputs": [],
      "name": "buyToken",
      "outputs": [],
      "stateMutability": "payable",
      "type": "function",
      "payable": true
    },
    {
      "inputs": [],
      "name": "sellToken",
      "outputs": [],
      "stateMutability": "payable",
      "type": "function",
      "payable": true
    }
  ],
  "bytecode": "0x608060405234801561001057600080fd5b506040516109ae3803806109ae833981810160405281019061003291906100ed565b806000806101000a81548173ffffffffffffffffffffffffffffffffffffffff021916908373ffffffffffffffffffffffffffffffffffffffff1602179055505061011a565b600080fd5b600073ffffffffffffffffffffffffffffffffffffffff82169050919050565b60006100a88261007d565b9050919050565b60006100ba8261009d565b9050919050565b6100ca816100af565b81146100d557600080fd5b50565b6000815190506100e7816100c1565b92915050565b60006020828403121561010357610102610078565b5b6000610111848285016100d8565b91505092915050565b610885806101296000396000f3fe6080604052600436106100865760003560e01c8063a482171911610059578063a482171914610116578063b7182b9514610120578063b83686151461014b578063c7b00aad14610176578063fc0c546a146101a157610086565b806321df0da71461008b5780632c4e722e146100b65780637a6ce2e1146100e15780639769f0b01461010c575b600080fd5b34801561009757600080fd5b506100a06101cc565b6040516100ad919061053b565b60405180910390f35b3480156100c257600080fd5b506100cb6101f5565b6040516100d8919061056f565b60405180910390f35b3480156100ed57600080fd5b506100f66101fb565b604051610103919061053b565b60405180910390f35b610114610203565b005b61011e610205565b005b34801561012c57600080fd5b50610135610395565b604051610142919061053b565b60405180910390f35b34801561015757600080fd5b5061016061042c565b60405161016d919061053b565b60405180910390f35b34801561018257600080fd5b5061018b610434565b604051610198919061056f565b60405180910390f35b3480156101ad57600080fd5b506101b66104d6565b6040516101c391906105e9565b60405180910390f35b60008060009054906101000a900473ffffffffffffffffffffffffffffffffffffffff16905090565b60015481565b600033905090565b565b6000600154346102159190610633565b90508060008054906101000a900473ffffffffffffffffffffffffffffffffffffffff1673ffffffffffffffffffffffffffffffffffffffff166370a08231306040518263ffffffff1660e01b8152600401610271919061053b565b602060405180830381865afa15801561028e573d6000803e3d6000fd5b505050506040513d601f19601f820116820180604052508101906102b291906106be565b10156102f3576040517f08c379a00000000000000000000000000000000000000000000000000000000081526004016102ea90610748565b60405180910390fd5b60008054906101000a900473ffffffffffffffffffffffffffffffffffffffff1673ffffffffffffffffffffffffffffffffffffffff1663a9059cbb33836040518363ffffffff1660e01b815260040161034e929190610768565b6020604051808303816000875af115801561036d573d6000803e3d6000fd5b505050506040513d601f19601f8201168201806040525081019061039191906107c9565b5050565b60008060009054906101000a900473ffffffffffffffffffffffffffffffffffffffff1673ffffffffffffffffffffffffffffffffffffffff16638da5cb5b6040518163ffffffff1660e01b8152600401602060405180830381865afa158015610403573d6000803e3d6000fd5b505050506040513d601f19601f820116820180604052508101906104279190610822565b905090565b600030905090565b60008060009054906101000a900473ffffffffffffffffffffffffffffffffffffffff1673ffffffffffffffffffffffffffffffffffffffff166370a08231336040518263ffffffff1660e01b8152600401610490919061053b565b602060405180830381865afa1580156104ad573d6000803e3d6000fd5b505050506040513d601f19601f820116820180604052508101906104d191906106be565b905090565b60008054906101000a900473ffffffffffffffffffffffffffffffffffffffff1681565b600073ffffffffffffffffffffffffffffffffffffffff82169050919050565b6000610525826104fa565b9050919050565b6105358161051a565b82525050565b6000602082019050610550600083018461052c565b92915050565b6000819050919050565b61056981610556565b82525050565b60006020820190506105846000830184610560565b92915050565b6000819050919050565b60006105af6105aa6105a5846104fa565b61058a565b6104fa565b9050919050565b60006105c182610594565b9050919050565b60006105d3826105b6565b9050919050565b6105e3816105c8565b82525050565b60006020820190506105fe60008301846105da565b92915050565b7f4e487b7100000000000000000000000000000000000000000000000000000000600052601160045260246000fd5b600061063e82610556565b915061064983610556565b9250817fffffffffffffffffffffffffffffffffffffffffffffffffffffffffffffffff048311821515161561068257610681610604565b5b828202905092915050565b600080fd5b61069b81610556565b81146106a657600080fd5b50565b6000815190506106b881610692565b92915050565b6000602082840312156106d4576106d361068d565b5b60006106e2848285016106a9565b91505092915050565b600082825260208201905092915050565b7f6572726f72205b315d0000000000000000000000000000000000000000000000600082015250565b60006107326009836106eb565b915061073d826106fc565b602082019050919050565b6000602082019050818103600083015261076181610725565b9050919050565b600060408201905061077d600083018561052c565b61078a6020830184610560565b9392505050565b60008115159050919050565b6107a681610791565b81146107b157600080fd5b50565b6000815190506107c38161079d565b92915050565b6000602082840312156107df576107de61068d565b5b60006107ed848285016107b4565b91505092915050565b6107ff8161051a565b811461080a57600080fd5b50565b60008151905061081c816107f6565b92915050565b6000602082840312156108385761083761068d565b5b60006108468482850161080d565b9150509291505056fea2646970667358221220b4c8c64b6f15c2d6524391e10b1af7fecdb926c1905701b14524fd243e10b4e364736f6c634300080f0033",
  "immutableReferences": {},
  "source": "// SPDX-License-Identifier : MIT\npragma solidity ^0.8.15;\n\nimport \"../node_modules/openzeppelin-solidity/contracts/token/ERC20/ERC20.sol\";\n\n\n//ingToken Tx CA\n// EthSwap Tx (ingToken CA)\n    // CA.balanceOf()call()\n    // CA,transfer()send()\ncontract EthSwap {\n    ERC20 public token;\n//   type     \n    uint public rate;\n\n\n    // ingToken  ca  \n    // ERC20   \n    constructor(ERC20 _token) {\n        token = _token;\n    }\n\n    function getThis() public view returns(address) {\n        return address(this); //  ethswap ca\n    }\n\n    function getMsgSender() public view returns(address) {\n        return msg.sender; //ethswap  \n    }\n\n    function getToken() public view returns (address) {\n        return address(token);\n        // ingToken  ca\n    } \n\n    function getSwapBalance() public view returns(uint) {\n        return token.balanceOf(msg.sender);\n    }\n\n    function getTokenOwner() public view returns (address) {\n        return token.owner();\n    }\n\n    function buyToken() public payable {\n        uint256 tokenAmount = msg.value * rate;\n        require(token.balanceOf(address(this)) >= tokenAmount, 'error [1]');\n        token.transfer(msg.sender, tokenAmount);\n    }\n\n    function sellToken() public payable {\n\n    }\n}",
  "sourcePath": "/Users/chronica/Desktop/blockchain5/class/0721/truffle/contracts/EthSwap.sol",
  "compiler": {
    "name": "solc",
    "version": "0.8.15+commit.e14f2714.Emscripten.clang"
  },
  "schemaVersion": "3.4.8",
  "updatedAt": "2022-07-21T03:31:30.942Z",
  "networkType": "ethereum",
  "devdoc": {
    "kind": "dev",
    "methods": {},
    "version": 1
  },
  "userdoc": {
    "kind": "user",
    "methods": {},
    "version": 1
  }
}