{
  "contractName": "IngToken",
  "abi": [
    {
      "inputs": [],
      "stateMutability": "nonpayable",
      "type": "constructor"
    },
    {
      "anonymous": false,
      "inputs": [
        {
          "indexed": true,
          "internalType": "address",
          "name": "owner",
          "type": "address"
        },
        {
          "indexed": true,
          "internalType": "address",
          "name": "spender",
          "type": "address"
        },
        {
          "indexed": false,
          "internalType": "uint256",
          "name": "value",
          "type": "uint256"
        }
      ],
      "name": "Approval",
      "type": "event"
    },
    {
      "anonymous": false,
      "inputs": [
        {
          "indexed": true,
          "internalType": "address",
          "name": "from",
          "type": "address"
        },
        {
          "indexed": true,
          "internalType": "address",
          "name": "to",
          "type": "address"
        },
        {
          "indexed": false,
          "internalType": "uint256",
          "name": "value",
          "type": "uint256"
        }
      ],
      "name": "Transfer",
      "type": "event"
    },
    {
      "inputs": [],
      "name": "_name",
      "outputs": [
        {
          "internalType": "string",
          "name": "",
          "type": "string"
        }
      ],
      "stateMutability": "view",
      "type": "function",
      "constant": true
    },
    {
      "inputs": [],
      "name": "_symbol",
      "outputs": [
        {
          "internalType": "string",
          "name": "",
          "type": "string"
        }
      ],
      "stateMutability": "view",
      "type": "function",
      "constant": true
    },
    {
      "inputs": [],
      "name": "_totalSupply",
      "outputs": [
        {
          "internalType": "uint256",
          "name": "",
          "type": "uint256"
        }
      ],
      "stateMutability": "view",
      "type": "function",
      "constant": true
    },
    {
      "inputs": [
        {
          "internalType": "address",
          "name": "owner",
          "type": "address"
        },
        {
          "internalType": "address",
          "name": "spender",
          "type": "address"
        }
      ],
      "name": "allowance",
      "outputs": [
        {
          "internalType": "uint256",
          "name": "",
          "type": "uint256"
        }
      ],
      "stateMutability": "view",
      "type": "function",
      "constant": true
    },
    {
      "inputs": [
        {
          "internalType": "address",
          "name": "spender",
          "type": "address"
        },
        {
          "internalType": "uint256",
          "name": "amount",
          "type": "uint256"
        }
      ],
      "name": "approve",
      "outputs": [
        {
          "internalType": "bool",
          "name": "",
          "type": "bool"
        }
      ],
      "stateMutability": "nonpayable",
      "type": "function"
    },
    {
      "inputs": [
        {
          "internalType": "address",
          "name": "account",
          "type": "address"
        }
      ],
      "name": "balanceOf",
      "outputs": [
        {
          "internalType": "uint256",
          "name": "",
          "type": "uint256"
        }
      ],
      "stateMutability": "view",
      "type": "function",
      "constant": true
    },
    {
      "inputs": [],
      "name": "decimals",
      "outputs": [
        {
          "internalType": "uint8",
          "name": "",
          "type": "uint8"
        }
      ],
      "stateMutability": "view",
      "type": "function",
      "constant": true
    },
    {
      "inputs": [
        {
          "internalType": "address",
          "name": "spender",
          "type": "address"
        },
        {
          "internalType": "uint256",
          "name": "subtractedValue",
          "type": "uint256"
        }
      ],
      "name": "decreaseAllowance",
      "outputs": [
        {
          "internalType": "bool",
          "name": "",
          "type": "bool"
        }
      ],
      "stateMutability": "nonpayable",
      "type": "function"
    },
    {
      "inputs": [
        {
          "internalType": "address",
          "name": "spender",
          "type": "address"
        },
        {
          "internalType": "uint256",
          "name": "addedValue",
          "type": "uint256"
        }
      ],
      "name": "increaseAllowance",
      "outputs": [
        {
          "internalType": "bool",
          "name": "",
          "type": "bool"
        }
      ],
      "stateMutability": "nonpayable",
      "type": "function"
    },
    {
      "inputs": [],
      "name": "name",
      "outputs": [
        {
          "internalType": "string",
          "name": "",
          "type": "string"
        }
      ],
      "stateMutability": "view",
      "type": "function",
      "constant": true
    },
    {
      "inputs": [],
      "name": "owner",
      "outputs": [
        {
          "internalType": "address",
          "name": "",
          "type": "address"
        }
      ],
      "stateMutability": "view",
      "type": "function",
      "constant": true
    },
    {
      "inputs": [],
      "name": "symbol",
      "outputs": [
        {
          "internalType": "string",
          "name": "",
          "type": "string"
        }
      ],
      "stateMutability": "view",
      "type": "function",
      "constant": true
    },
    {
      "inputs": [],
      "name": "totalSupply",
      "outputs": [
        {
          "internalType": "uint256",
          "name": "",
          "type": "uint256"
        }
      ],
      "stateMutability": "view",
      "type": "function",
      "constant": true
    },
    {
      "inputs": [
        {
          "internalType": "address",
          "name": "to",
          "type": "address"
        },
        {
          "internalType": "uint256",
          "name": "amount",
          "type": "uint256"
        }
      ],
      "name": "transfer",
      "outputs": [
        {
          "internalType": "bool",
          "name": "",
          "type": "bool"
        }
      ],
      "stateMutability": "nonpayable",
      "type": "function"
    },
    {
      "inputs": [
        {
          "internalType": "address",
          "name": "from",
          "type": "address"
        },
        {
          "internalType": "address",
          "name": "to",
          "type": "address"
        },
        {
          "internalType": "uint256",
          "name": "amount",
          "type": "uint256"
        }
      ],
      "name": "transferFrom",
      "outputs": [
        {
          "internalType": "bool",
          "name": "",
          "type": "bool"
        }
      ],
      "stateMutability": "nonpayable",
      "type": "function"
    }
  ],
  "bytecode": "0x60806040526040518060400160405280600881526020017f696e67546f6b656e000000000000000000000000000000000000000000000000815250600690816200004a91906200067d565b506040518060400160405280600381526020017f49544b0000000000000000000000000000000000000000000000000000000000815250600790816200009191906200067d565b50620000a26200027860201b60201c565b600a620000b09190620008f4565b620186a0620000c0919062000945565b600855348015620000d057600080fd5b5060068054620000e0906200046c565b80601f01602080910402602001604051908101604052809291908181526020018280546200010e906200046c565b80156200015f5780601f1062000133576101008083540402835291602001916200015f565b820191906000526020600020905b8154815290600101906020018083116200014157829003601f168201915b50505050506007805462000173906200046c565b80601f0160208091040260200160405190810160405280929190818152602001828054620001a1906200046c565b8015620001f25780601f10620001c657610100808354040283529160200191620001f2565b820191906000526020600020905b815481529060010190602001808311620001d457829003601f168201915b505050505033600560006101000a81548173ffffffffffffffffffffffffffffffffffffffff021916908373ffffffffffffffffffffffffffffffffffffffff16021790555081600390816200024991906200067d565b5080600490816200025b91906200067d565b50505062000272336008546200028160201b60201c565b62000ab4565b60006012905090565b600073ffffffffffffffffffffffffffffffffffffffff168273ffffffffffffffffffffffffffffffffffffffff1603620002f3576040517f08c379a0000000000000000000000000000000000000000000000000000000008152600401620002ea9062000a07565b60405180910390fd5b6200030760008383620003f960201b60201c565b80600260008282546200031b919062000a29565b92505081905550806000808473ffffffffffffffffffffffffffffffffffffffff1673ffffffffffffffffffffffffffffffffffffffff168152602001908152602001600020600082825462000372919062000a29565b925050819055508173ffffffffffffffffffffffffffffffffffffffff16600073ffffffffffffffffffffffffffffffffffffffff167fddf252ad1be2c89b69c2b068fc378daa952ba7f163c4a11628f55a4df523b3ef83604051620003d9919062000a97565b60405180910390a3620003f560008383620003fe60201b60201c565b5050565b505050565b505050565b600081519050919050565b7f4e487b7100000000000000000000000000000000000000000000000000000000600052604160045260246000fd5b7f4e487b7100000000000000000000000000000000000000000000000000000000600052602260045260246000fd5b600060028204905060018216806200048557607f821691505b6020821081036200049b576200049a6200043d565b5b50919050565b60008190508160005260206000209050919050565b60006020601f8301049050919050565b600082821b905092915050565b600060088302620005057fffffffffffffffffffffffffffffffffffffffffffffffffffffffffffffffff82620004c6565b620005118683620004c6565b95508019841693508086168417925050509392505050565b6000819050919050565b6000819050919050565b60006200055e62000558620005528462000529565b62000533565b62000529565b9050919050565b6000819050919050565b6200057a836200053d565b62000592620005898262000565565b848454620004d3565b825550505050565b600090565b620005a96200059a565b620005b68184846200056f565b505050565b5b81811015620005de57620005d26000826200059f565b600181019050620005bc565b5050565b601f8211156200062d57620005f781620004a1565b6200060284620004b6565b8101602085101562000612578190505b6200062a6200062185620004b6565b830182620005bb565b50505b505050565b600082821c905092915050565b6000620006526000198460080262000632565b1980831691505092915050565b60006200066d83836200063f565b9150826002028217905092915050565b620006888262000403565b67ffffffffffffffff811115620006a457620006a36200040e565b5b620006b082546200046c565b620006bd828285620005e2565b600060209050601f831160018114620006f55760008415620006e0578287015190505b620006ec85826200065f565b8655506200075c565b601f1984166200070586620004a1565b60005b828110156200072f5784890151825560018201915060208501945060208101905062000708565b868310156200074f57848901516200074b601f8916826200063f565b8355505b6001600288020188555050505b505050505050565b7f4e487b7100000000000000000000000000000000000000000000000000000000600052601160045260246000fd5b60008160011c9050919050565b6000808291508390505b6001851115620007f257808604811115620007ca57620007c962000764565b5b6001851615620007da5780820291505b8081029050620007ea8562000793565b9450620007aa565b94509492505050565b6000826200080d5760019050620008e0565b816200081d5760009050620008e0565b8160018114620008365760028114620008415762000877565b6001915050620008e0565b60ff84111562000856576200085562000764565b5b8360020a91508482111562000870576200086f62000764565b5b50620008e0565b5060208310610133831016604e8410600b8410161715620008b15782820a905083811115620008ab57620008aa62000764565b5b620008e0565b620008c08484846001620007a0565b92509050818404811115620008da57620008d962000764565b5b81810290505b9392505050565b600060ff82169050919050565b6000620009018262000529565b91506200090e83620008e7565b92506200093d7fffffffffffffffffffffffffffffffffffffffffffffffffffffffffffffffff8484620007fb565b905092915050565b6000620009528262000529565b91506200095f8362000529565b9250817fffffffffffffffffffffffffffffffffffffffffffffffffffffffffffffffff04831182151516156200099b576200099a62000764565b5b828202905092915050565b600082825260208201905092915050565b7f45524332303a206d696e7420746f20746865207a65726f206164647265737300600082015250565b6000620009ef601f83620009a6565b9150620009fc82620009b7565b602082019050919050565b6000602082019050818103600083015262000a2281620009e0565b9050919050565b600062000a368262000529565b915062000a438362000529565b9250827fffffffffffffffffffffffffffffffffffffffffffffffffffffffffffffffff0382111562000a7b5762000a7a62000764565b5b828201905092915050565b62000a918162000529565b82525050565b600060208201905062000aae600083018462000a86565b92915050565b6114998062000ac46000396000f3fe608060405234801561001057600080fd5b50600436106100f55760003560e01c806370a0823111610097578063a9059cbb11610066578063a9059cbb1461029e578063b09f1266146102ce578063d28d8852146102ec578063dd62ed3e1461030a576100f5565b806370a08231146102025780638da5cb5b1461023257806395d89b4114610250578063a457c2d71461026e576100f5565b806323b872dd116100d357806323b872dd14610166578063313ce5671461019657806339509351146101b45780633eaaf86b146101e4576100f5565b806306fdde03146100fa578063095ea7b31461011857806318160ddd14610148575b600080fd5b61010261033a565b60405161010f9190610d2a565b60405180910390f35b610132600480360381019061012d9190610de5565b6103cc565b60405161013f9190610e40565b60405180910390f35b6101506103ef565b60405161015d9190610e6a565b60405180910390f35b610180600480360381019061017b9190610e85565b6103f9565b60405161018d9190610e40565b60405180910390f35b61019e610428565b6040516101ab9190610ef4565b60405180910390f35b6101ce60048036038101906101c99190610de5565b610431565b6040516101db9190610e40565b60405180910390f35b6101ec610468565b6040516101f99190610e6a565b60405180910390f35b61021c60048036038101906102179190610f0f565b61046e565b6040516102299190610e6a565b60405180910390f35b61023a6104b6565b6040516102479190610f4b565b60405180910390f35b6102586104dc565b6040516102659190610d2a565b60405180910390f35b61028860048036038101906102839190610de5565b61056e565b6040516102959190610e40565b60405180910390f35b6102b860048036038101906102b39190610de5565b6105e5565b6040516102c59190610e40565b60405180910390f35b6102d6610608565b6040516102e39190610d2a565b60405180910390f35b6102f4610696565b6040516103019190610d2a565b60405180910390f35b610324600480360381019061031f9190610f66565b610724565b6040516103319190610e6a565b60405180910390f35b60606003805461034990610fd5565b80601f016020809104026020016040519081016040528092919081815260200182805461037590610fd5565b80156103c25780601f10610397576101008083540402835291602001916103c2565b820191906000526020600020905b8154815290600101906020018083116103a557829003601f168201915b5050505050905090565b6000806103d76107ab565b90506103e48185856107b3565b600191505092915050565b6000600254905090565b6000806104046107ab565b905061041185828561097c565b61041c858585610a08565b60019150509392505050565b60006012905090565b60008061043c6107ab565b905061045d81858561044e8589610724565b6104589190611035565b6107b3565b600191505092915050565b60085481565b60008060008373ffffffffffffffffffffffffffffffffffffffff1673ffffffffffffffffffffffffffffffffffffffff168152602001908152602001600020549050919050565b600560009054906101000a900473ffffffffffffffffffffffffffffffffffffffff1681565b6060600480546104eb90610fd5565b80601f016020809104026020016040519081016040528092919081815260200182805461051790610fd5565b80156105645780601f1061053957610100808354040283529160200191610564565b820191906000526020600020905b81548152906001019060200180831161054757829003601f168201915b5050505050905090565b6000806105796107ab565b905060006105878286610724565b9050838110156105cc576040517f08c379a00000000000000000000000000000000000000000000000000000000081526004016105c3906110fd565b60405180910390fd5b6105d982868684036107b3565b60019250505092915050565b6000806105f06107ab565b90506105fd818585610a08565b600191505092915050565b6007805461061590610fd5565b80601f016020809104026020016040519081016040528092919081815260200182805461064190610fd5565b801561068e5780601f106106635761010080835404028352916020019161068e565b820191906000526020600020905b81548152906001019060200180831161067157829003601f168201915b505050505081565b600680546106a390610fd5565b80601f01602080910402602001604051908101604052809291908181526020018280546106cf90610fd5565b801561071c5780601f106106f15761010080835404028352916020019161071c565b820191906000526020600020905b8154815290600101906020018083116106ff57829003601f168201915b505050505081565b6000600160008473ffffffffffffffffffffffffffffffffffffffff1673ffffffffffffffffffffffffffffffffffffffff16815260200190815260200160002060008373ffffffffffffffffffffffffffffffffffffffff1673ffffffffffffffffffffffffffffffffffffffff16815260200190815260200160002054905092915050565b600033905090565b600073ffffffffffffffffffffffffffffffffffffffff168373ffffffffffffffffffffffffffffffffffffffff1603610822576040517f08c379a00000000000000000000000000000000000000000000000000000000081526004016108199061118f565b60405180910390fd5b600073ffffffffffffffffffffffffffffffffffffffff168273ffffffffffffffffffffffffffffffffffffffff1603610891576040517f08c379a000000000000000000000000000000000000000000000000000000000815260040161088890611221565b60405180910390fd5b80600160008573ffffffffffffffffffffffffffffffffffffffff1673ffffffffffffffffffffffffffffffffffffffff16815260200190815260200160002060008473ffffffffffffffffffffffffffffffffffffffff1673ffffffffffffffffffffffffffffffffffffffff168152602001908152602001600020819055508173ffffffffffffffffffffffffffffffffffffffff168373ffffffffffffffffffffffffffffffffffffffff167f8c5be1e5ebec7d5bd14f71427d1e84f3dd0314c0f7b2291e5b200ac8c7c3b9258360405161096f9190610e6a565b60405180910390a3505050565b60006109888484610724565b90507fffffffffffffffffffffffffffffffffffffffffffffffffffffffffffffffff8114610a0257818110156109f4576040517f08c379a00000000000000000000000000000000000000000000000000000000081526004016109eb9061128d565b60405180910390fd5b610a0184848484036107b3565b5b50505050565b600073ffffffffffffffffffffffffffffffffffffffff168373ffffffffffffffffffffffffffffffffffffffff1603610a77576040517f08c379a0000000000000000000000000000000000000000000000000000000008152600401610a6e9061131f565b60405180910390fd5b600073ffffffffffffffffffffffffffffffffffffffff168273ffffffffffffffffffffffffffffffffffffffff1603610ae6576040517f08c379a0000000000000000000000000000000000000000000000000000000008152600401610add906113b1565b60405180910390fd5b610af1838383610c87565b60008060008573ffffffffffffffffffffffffffffffffffffffff1673ffffffffffffffffffffffffffffffffffffffff16815260200190815260200160002054905081811015610b77576040517f08c379a0000000000000000000000000000000000000000000000000000000008152600401610b6e90611443565b60405180910390fd5b8181036000808673ffffffffffffffffffffffffffffffffffffffff1673ffffffffffffffffffffffffffffffffffffffff16815260200190815260200160002081905550816000808573ffffffffffffffffffffffffffffffffffffffff1673ffffffffffffffffffffffffffffffffffffffff1681526020019081526020016000206000828254610c0a9190611035565b925050819055508273ffffffffffffffffffffffffffffffffffffffff168473ffffffffffffffffffffffffffffffffffffffff167fddf252ad1be2c89b69c2b068fc378daa952ba7f163c4a11628f55a4df523b3ef84604051610c6e9190610e6a565b60405180910390a3610c81848484610c8c565b50505050565b505050565b505050565b600081519050919050565b600082825260208201905092915050565b60005b83811015610ccb578082015181840152602081019050610cb0565b83811115610cda576000848401525b50505050565b6000601f19601f8301169050919050565b6000610cfc82610c91565b610d068185610c9c565b9350610d16818560208601610cad565b610d1f81610ce0565b840191505092915050565b60006020820190508181036000830152610d448184610cf1565b905092915050565b600080fd5b600073ffffffffffffffffffffffffffffffffffffffff82169050919050565b6000610d7c82610d51565b9050919050565b610d8c81610d71565b8114610d9757600080fd5b50565b600081359050610da981610d83565b92915050565b6000819050919050565b610dc281610daf565b8114610dcd57600080fd5b50565b600081359050610ddf81610db9565b92915050565b60008060408385031215610dfc57610dfb610d4c565b5b6000610e0a85828601610d9a565b9250506020610e1b85828601610dd0565b9150509250929050565b60008115159050919050565b610e3a81610e25565b82525050565b6000602082019050610e556000830184610e31565b92915050565b610e6481610daf565b82525050565b6000602082019050610e7f6000830184610e5b565b92915050565b600080600060608486031215610e9e57610e9d610d4c565b5b6000610eac86828701610d9a565b9350506020610ebd86828701610d9a565b9250506040610ece86828701610dd0565b9150509250925092565b600060ff82169050919050565b610eee81610ed8565b82525050565b6000602082019050610f096000830184610ee5565b92915050565b600060208284031215610f2557610f24610d4c565b5b6000610f3384828501610d9a565b91505092915050565b610f4581610d71565b82525050565b6000602082019050610f606000830184610f3c565b92915050565b60008060408385031215610f7d57610f7c610d4c565b5b6000610f8b85828601610d9a565b9250506020610f9c85828601610d9a565b9150509250929050565b7f4e487b7100000000000000000000000000000000000000000000000000000000600052602260045260246000fd5b60006002820490506001821680610fed57607f821691505b60208210810361100057610fff610fa6565b5b50919050565b7f4e487b7100000000000000000000000000000000000000000000000000000000600052601160045260246000fd5b600061104082610daf565b915061104b83610daf565b9250827fffffffffffffffffffffffffffffffffffffffffffffffffffffffffffffffff038211156110805761107f611006565b5b828201905092915050565b7f45524332303a2064656372656173656420616c6c6f77616e63652062656c6f7760008201527f207a65726f000000000000000000000000000000000000000000000000000000602082015250565b60006110e7602583610c9c565b91506110f28261108b565b604082019050919050565b60006020820190508181036000830152611116816110da565b9050919050565b7f45524332303a20617070726f76652066726f6d20746865207a65726f2061646460008201527f7265737300000000000000000000000000000000000000000000000000000000602082015250565b6000611179602483610c9c565b91506111848261111d565b604082019050919050565b600060208201905081810360008301526111a88161116c565b9050919050565b7f45524332303a20617070726f766520746f20746865207a65726f20616464726560008201527f7373000000000000000000000000000000000000000000000000000000000000602082015250565b600061120b602283610c9c565b9150611216826111af565b604082019050919050565b6000602082019050818103600083015261123a816111fe565b9050919050565b7f45524332303a20696e73756666696369656e7420616c6c6f77616e6365000000600082015250565b6000611277601d83610c9c565b915061128282611241565b602082019050919050565b600060208201905081810360008301526112a68161126a565b9050919050565b7f45524332303a207472616e736665722066726f6d20746865207a65726f20616460008201527f6472657373000000000000000000000000000000000000000000000000000000602082015250565b6000611309602583610c9c565b9150611314826112ad565b604082019050919050565b60006020820190508181036000830152611338816112fc565b9050919050565b7f45524332303a207472616e7366657220746f20746865207a65726f206164647260008201527f6573730000000000000000000000000000000000000000000000000000000000602082015250565b600061139b602383610c9c565b91506113a68261133f565b604082019050919050565b600060208201905081810360008301526113ca8161138e565b9050919050565b7f45524332303a207472616e7366657220616d6f756e742065786365656473206260008201527f616c616e63650000000000000000000000000000000000000000000000000000602082015250565b600061142d602683610c9c565b9150611438826113d1565b604082019050919050565b6000602082019050818103600083015261145c81611420565b905091905056fea2646970667358221220de0862069de3939e76cc1a62a09430234f3b797c4fd8bf6b1e4bcdb67ba83ffc64736f6c634300080f0033",
  "immutableReferences": {},
  "source": "// SPDX-License-Identifier : MIT\npragma solidity ^0.8.15;\n\nimport \"../node_modules/openzeppelin-solidity/contracts/token/ERC20/ERC20.sol\";\n\ncontract IngToken is ERC20 {\n    string public _name = 'ingToken';\n    string public _symbol = 'ITK';\n    uint256 public _totalSupply = 100000 * ( 10 ** decimals() );\n\n    constructor() ERC20( _name, _symbol ) {\n        _mint(msg.sender, _totalSupply);\n    }\n}",
  "sourcePath": "/Users/chronica/Desktop/blockchain5/class/0721/truffle/contracts/ingToken.sol",
  "compiler": {
    "name": "solc",
    "version": "0.8.15+commit.e14f2714.Emscripten.clang"
  },
  "schemaVersion": "3.4.8",
  "updatedAt": "2022-07-21T03:31:30.936Z",
  "networkType": "ethereum",
  "devdoc": {
    "kind": "dev",
    "methods": {
      "allowance(address,address)": {
        "details": "See {IERC20-allowance}."
      },
      "approve(address,uint256)": {
        "details": "See {IERC20-approve}. NOTE: If `amount` is the maximum `uint256`, the allowance is not updated on `transferFrom`. This is semantically equivalent to an infinite approval. Requirements: - `spender` cannot be the zero address."
      },
      "balanceOf(address)": {
        "details": "See {IERC20-balanceOf}."
      },
      "decimals()": {
        "details": "Returns the number of decimals used to get its user representation. For example, if `decimals` equals `2`, a balance of `505` tokens should be displayed to a user as `5.05` (`505 / 10 ** 2`). Tokens usually opt for a value of 18, imitating the relationship between Ether and Wei. This is the value {ERC20} uses, unless this function is overridden; NOTE: This information is only used for _display_ purposes: it in no way affects any of the arithmetic of the contract, including {IERC20-balanceOf} and {IERC20-transfer}."
      },
      "decreaseAllowance(address,uint256)": {
        "details": "Atomically decreases the allowance granted to `spender` by the caller. This is an alternative to {approve} that can be used as a mitigation for problems described in {IERC20-approve}. Emits an {Approval} event indicating the updated allowance. Requirements: - `spender` cannot be the zero address. - `spender` must have allowance for the caller of at least `subtractedValue`."
      },
      "increaseAllowance(address,uint256)": {
        "details": "Atomically increases the allowance granted to `spender` by the caller. This is an alternative to {approve} that can be used as a mitigation for problems described in {IERC20-approve}. Emits an {Approval} event indicating the updated allowance. Requirements: - `spender` cannot be the zero address."
      },
      "name()": {
        "details": "Returns the name of the token."
      },
      "symbol()": {
        "details": "Returns the symbol of the token, usually a shorter version of the name."
      },
      "totalSupply()": {
        "details": "See {IERC20-totalSupply}."
      },
      "transfer(address,uint256)": {
        "details": "See {IERC20-transfer}. Requirements: - `to` cannot be the zero address. - the caller must have a balance of at least `amount`."
      },
      "transferFrom(address,address,uint256)": {
        "details": "See {IERC20-transferFrom}. Emits an {Approval} event indicating the updated allowance. This is not required by the EIP. See the note at the beginning of {ERC20}. NOTE: Does not update the allowance if the current allowance is the maximum `uint256`. Requirements: - `from` and `to` cannot be the zero address. - `from` must have a balance of at least `amount`. - the caller must have allowance for ``from``'s tokens of at least `amount`."
      }
    },
    "version": 1
  },
  "userdoc": {
    "kind": "user",
    "methods": {},
    "version": 1
  }
}